:020000041000EA
:1000000000B5324B212058609868022188439860DF
:10001000D860186158612E4B002199600221596106
:100020000121F02299502B49196001219960352056
:1000300000F044F80222904214D00621196600F024
:1000400034F8196E01211966002018661A6600F04E
:100050002CF8196E196E196E052000F02FF8012189
:100060000842F9D1002199601B49196000215960AB
:100070001A491B48016001219960EB211966A021F2
:10008000196600F012F800219960164914480160C1
:100090000121996001BC002800D000471248134993
:1000A000086003C880F30888084703B5996A0420EC
:1000B0000142FBD001200142F8D103BD02B5186610
:1000C0001866FFF7F2FF186E186E02BD00000240BE
:1000D000000000180000070000035F00212200005C
:1000E000F4000018222000A00001001008ED00E03C
:1000F00000000000000000000000000074B24E7A12
:1001000000200420F7010010C3010010C5010010F9
:10011000C1010010C1010010C1010010C101001097
:10012000C1010010C1010010C1010010C701001081
:10013000C1010010C1010010C9010010CB01001065
:10014000CD010010CD010010CD010010CD01001037
:10015000CD010010CD010010CD010010CD01001027
:10016000CD010010CD010010CD010010CD01001017
:10017000CD010010CD010010CD010010CD01001007
:10018000CD010010CD010010CD010010CD010010F7
:10019000CD010010CD010010CD010010CD010010E7
:1001A000CD010010CD010010CD010010CD010010D7
:1001B000CD010010CD010010CD010010CD010010C7
:1001C00000BE00BE00BE00BE00BE00BEEFF3058054
:1001D000103800BEF2EB8871A8C80810C8C8081013
:1001E0003402001090A31AE700201F49086006C8D7
:1001F00081F3088810471D48006800282FD10DA4FE
:100200000ECC002902D000F012F8F9E71849194A7B
:10021000002000E001C19142FCD1174988471749ED
:1002200088471749884700BEFDE701C901C29A42C5
:10023000FBD37047C8C80810C00000209C2C0020C9
:10024000A4F408100000042000000420A4F4081006
:10025000001004200010042000000000704709482E
:1002600001F002F80047000008ED00E0000000D0B7
:10027000C02C00208C0A01205DBC0010F504001089
:1002800091BD00105756000006005250ABB36053AA
:10029000D820081006005250861C0302E8200810DF
:1002A000060052505422A29DF8200810050052501A
:1002B000DE65F468A4F40810F8B5C0460448054BA0
:1002C00010B5834203D0044B002B00D0984710BDDB
:1002D0009C2C00209C2C00200000000006480749B0
:1002E000091A8B10C90FC91810B5491003D0044B57
:1002F000002B00D0984710BD9C2C00209C2C002087
:100300000000000010B5074C2378002B09D1FFF73F
:10031000D5FF054B002B02D0044800E000BF0123AD
:10032000237010BD182F0020000000005894041006
:10033000054B10B5002B03D00449054800E000BF71
:10034000FFF7CCFF10BDC046000000001C2F0020AE
:1003500058940410F8B5CE464746814680B52148EA
:100360000F001103160098460DF0ACF84B1E994192
:100370001C480D0031000DF0A5F8000B2D18102DB4
:1003800000D21025290018480DF09CF831000DF01E
:1003900099F84B469C004C44144B461E1449A4004B
:1003A000E21833040D401B0C55601361114B40469D
:1003B0009C466421704364440DF084F803041B0CD4
:1003C000002F0CD10C4A2068434080204001044398
:1003D0001A4030002260C0BCB946B046F8BD074A9A
:1003E0001B04F0E74059730700943577000005407F
:1003F000FF0F00000C000540FFFF00000000FFFFA2
:10040000F8B5CE464746040080B5080015000E003A
:10041000994601F069F90123D0279846B3403F0679
:1004200028007B6201F060F94346AB4030007B62FC
:10043000042101F0B9F82800042101F0B5F80723E0
:100440006A087008414618401340424631402A402D
:10045000E361A160226226604A46A56100236060D4
:10046000FFF778FF4A46216A00232061E069FFF721
:1004700071FFA062082001F037F980235B007B62E6
:10048000092001F031F980239B007B620A2001F0F2
:100490002BF98023DB007B620B2001F025F9802300
:1004A0001B017B6208232363013363630133A3636E
:1004B0000133E363C0BCB946B046F8BD10B50B4983
:1004C0000B4810F037F803210F2001F06DF80321DD
:1004D0000E2001F069F8002201210F2001F07CF8C4
:1004E000002201210E2001F077F810BDA086010046
:1004F000A8210020F0B5DE4657464E464546E0B5F9
:100500009FB00DF04BFF644801F058FF07F01AFE52
:100510000121002007F006FEFFF7D0FFFA230C228E
:1005200007219B000EA8FFF76BFF0F9A0125930090
:100530009B185A4A9B009446012210006344196894
:1005400014008843802149010B4318601598072740
:1005500083001B189B00634418680B4344218443A9
:100560001C6002AB5B1830201A702C2302A90918FA
:10057000CA5402AA3C331370002393820493059358
:100580000693002310004649089309930A930B939E
:100590000C930D9310F0B6F802A810F02BF9414B14
:1005A00032269A46404B9846404B994640E0404B95
:1005B000226864215040802252010340144323608A
:1005C000149B9B465B083B409C00E418394BA400FD
:1005D000E3181868384B70439C4664440CF072FF73
:1005E0005B460004000C1D4253D1314B2268504041
:1005F0008022520103401443236002A810F0BEF889
:1006000002A810F0A1F811225146041C40462DF01A
:10061000ABF8201C0DF08CFB02000B0040462DF0C7
:10062000E1F9012249462DF09FF8642001F0C6FE51
:100630002A001A9B9A40D0231B069A611B9A0192AA
:100640002A0001998A405A611C9A01922A00019954
:100650008A405A611D9A01922A0001998A409A6142
:100660000E9B64219B465B083B409C00E418114BA9
:10067000A400E3181868104B70439C4664440CF0C7
:1006800021FF5B460004000C1D4290D00B4B000480
:100690008EE70A4B0004A9E7DC05000000000540D6
:1006A000A8210020589404101C43002064A60410C4
:1006B000FFFF0000100005400C0005400000FFFF98
:1006C00010B5024810F068FB10BDC046EC45002094
:1006D00010B505F0C5F910BD0123F0B50B7283B05C
:1006E000040005F0F1F90500431C0DD11249134B2C
:1006F0001A685B68009201938A60CB6023682000CF
:100700005B69984703B0F0BD01F046FFFA2206008E
:100710000F0000232800002192000DF087FA361800
:100720004F41002F03DB04498E60CF60E6E70126CE
:10073000034F7642F7E7C04670200020A8940410CB
:10074000FFFFFF7F70B5094D04002B78002B08D008
:100750000123074920000B722368DB6998470120B9
:1007600070BD02F0BDFA01232B70F1E7800A012071
:100770005C20002010B50400036804499B69984779
:10078000236820001B6A0249984710BD7020002092
:100790005C200020002070477047C04610B501F073
:1007A000FBFE002905D0FA22002392000CF0C8FEBF
:1007B00010BDFA2189000CF085FEF9E7020083687C
:1007C0000832002B04D107E01A001B68002B03D06D
:1007D0009942F9D1002003E00023012011600B6051
:1007E0007047C0468368002B08D0994202D107E0C9
:1007F000994207D01A001B68002BF9D100207047DE
:10080000020008320B6801201360F8E74368021DFC
:10081000002B04D107E01A001B68002B03D099427B
:10082000F9D1002003E00023012011600B60704724
:100830004368002B08D0994202D107E0994206D0C4
:100840001A001B68002BF9D100207047021D0B68AD
:1008500001201360F9E7C046F8B54746CE468368E5
:10086000804680B5002B29D008234344994601F0E7
:1008700093FE43469E6804000D00002E58D00023CE
:100880004F469C46B268F36820002900801A9941BF
:10089000002902DB14001D00BC4637003668002E1C
:1008A000F0D16346002B43D0196840460A681A60AD
:1008B0004B68984743469B68002BD8D143465C68F9
:1008C000002C31D00025237A002B29D02100636829
:1008D0002572404698472468002CF4D1174B1868BD
:1008E000596843469E68002E04D112E0200029007A
:1008F000002E0ED0330002009C68DD680B00121B36
:10090000AB413668002BF1DCF2D1002AEED1002E8B
:10091000F0D1434618615961C0BCB946B046F8BD34
:100920002468002CCFD1D9E7044B18685968F0E748
:1009300043465C68002CC5D1D0E7C046A89404109B
:10094000024B18688007C00F7047C04600C00640C1
:10095000104A114B10B512184B419900900F0843E3
:10096000990F504059400D4A0D4B0DF05FF90300AF
:100970004A01C00E1043CA0E58405140094B0A4A62
:100980000DF054F903004A00C00F1043CA0F58403D
:10099000514010BD157C4A7FB979379EB9E5E41CFA
:1009A0006D4758BFBB49D094EB113113F0B50468C3
:1009B0004568060023002A00C6468068F1680343A4
:1009C0000A4300B5134304D101F0E6FD03000B43D5
:1009D000FAD02A06230A6040270613432A0A3A431C
:1009E000070CBC4669404B40984663460F041F43C2
:1009F000424003045A4043467B4032607360C20E5B
:100A00004B011343C90E40010843B360A10FAB0073
:100A10000B43A200A4185D41EB01620E1A43E401EE
:100A20006B0E2343F0601E0017005B0FD100F00037
:100A300019438019794180BCB846F0BDF0B5DE4657
:100A400057464E464546E0B5B84B8DB01B78002B57
:100A500000D1ECE008AB9846B54BB64C0393B64BCF
:100A6000B64F04931022049940460DF0BFF9B44BE1
:100A70001B78DBB2059301F08FFDFFF769FF089B40
:100A8000584043465B680890594043465960AD4B17
:100A90009B69DB0400D5C0E00BF0B0F9EFF30583F0
:100AA0009B46B9465F46A84B256866689A4628006B
:100AB0003100002F1AD001F0A3FDEFF3108272B6BF
:100AC00053461B68002BFBD0BFF35F8F2368AB42FC
:100AD0000FD0BFF35F8F00215346196082F3108857
:100AE0002568666828003100002FE4D101F004FC7D
:100AF000E3E76368B342ECD10125924B1600D86955
:100B00004F46054001F048FD0A2200238018594154
:100B1000002900DA7DE03A687B6892185B4120602A
:100B2000616028001C00130010430093019438609A
:100B30007C60BFF35F8F0024834A146086F31088C3
:100B40000199FFF705FF43469B68804A584043469A
:100B5000DB689446594043469860D960039B7C4AC1
:100B60001B78DB006344986890425ED00021FFF759
:100B7000EFFE089B584043465B6808905940434647
:100B80005960EFF3108572B66F4A1368002BFCD0E2
:100B9000BFF35F8F6A4B059A1B78934219D0049973
:100BA00040460B6840681A00089B5A40089242462B
:100BB0004B68434053608B6800934346009A9B68A0
:100BC0005A40CB684146C96800934B4041468A6011
:100BD000CB604046FFF7EAFE102206000C000498A6
:100BE00041460DF003F9564B554A1B780133DBB2F1
:100BF0001370BFF35F8F0022534B1A6085F3108888
:100C0000300021000DB0F0BCBB46B246A946A0465C
:100C1000F0BD01204F4940427DE74F4BDA6BE023A6
:100C20001340402B00D039E736E79C609EE74B4BE2
:100C30009946186859684A4B9C464A4B9846830E19
:100C40008F011F438601030C0D041D4332003B003E
:100C5000040412196B41121A8B41614601C98C467A
:100C60000021009001910098019980185941C445D4
:100C7000E5D14B4618605960FFF76AFE08AB98460D
:100C8000089B584043465B6808905940434606A875
:100C9000596000F021F906980799FFF759FE43467D
:100CA0009B6858404346DB68594043469860D9608A
:100CB000244B9B69DB0436D5274BDA6BE0231340CA
:100CC000402B30D0EFF305839A4640230024039352
:100CD00000231D4F00930194164C00239B4653465E
:100CE0002568666828003100002B19D001F088FCC7
:100CF000EFF3108972B63B68002BFCD0BFF35F8F17
:100D00002368AB4230D0BFF35F8F5B463B6089F313
:100D1000108853462568666828003100002BE5D10D
:100D200001F0EAFAE4E70BF069F8CBE7860A012064
:100D30007B0A0120102E0020A82C0020B82C0020B7
:100D40007C0A012000000640300100D00000034072
:100D5000FFFFFF00FFFFFF7F00800040A02C00206E
:100D6000001C0420002004206368B342CBD1009A09
:100D7000019B1000190080185941484BDA69012382
:100D8000134003430093019101F006FC0A22002363
:100D900080185941002949DB039B20606160012BC9
:100DA0003AD1009801993E4F38607960BFF35F8F68
:100DB00000233C4D2B6089F31088FFF7C9FD089B89
:100DC000584043465B68089059404346596001F0DB
:100DD000E3FBFFF7BDFD43469B6858404346DB6895
:100DE000594043469860D960EFF3108672B62B687D
:100DF000002BFCD0BFF35F8F2B4B1B78002B19D03F
:100E00002A4B03932A4B0493BFF35F8F0022254B99
:100E10001A6086F3108825E6BFF35F8F00233B60DE
:100E200089F31088039B013B039356E70120214976
:100E30004042B1E7204BDA681F2A23D05A691F2AA3
:100E400022D0DA691F2A25D05B6A1F2B1FD00AF037
:100E5000D5FFFF22FF231549DB000A70174A0391D3
:100E60009446052263445A604046FFF79FFD104BAD
:100E700010221800414604930CF0B8FF01230A4ADF
:100E80001370C1E700230393039BDAB2E3E71C3B33
:100E90000393F9E702230393F6E7C04600000640F8
:100EA000B82C0020300100D0860A01207B0A0120E6
:100EB000A82C0020FFFFFF7F000003400800034034
:100EC00010B5FFF7BBFD10BD10B5024800F0E0F80B
:100ED00010BDC0461409012010B5082201490CF0CC
:100EE00085FF10BD1409012030B54B1E012900D12A
:100EF000A7E0664A11780D112C0030349F2900D9E3
:100F0000A2E00470012B00D1BEE00F211478214033
:100F10000C003034092900DD98E04470022B00D128
:100F2000B2E054782511290030319F2C00D990E08F
:100F30008170032B00D1A7E00F2121400C00303439
:100F4000092900DD87E0C470042B00D19CE094786F
:100F50002511290030319F2C00D97FE00171052B2C
:100F600000D191E00F2121400C003034092900DD2F
:100F700076E04471062B00D186E0D4782511290053
:100F800030319F2C00D96EE08171072B00D17BE0BE
:100F90000F2121400C003034092966DCC471082B74
:100FA00000D171E014792511290030319F2C5FD8D0
:100FB0000172092B68D00F2121400C00303409291F
:100FC00058DC44720A2B5FD0547925112900303146
:100FD0009F2C52D881720B2B56D00F2121400C0030
:100FE000303409294BDCC4720C2B4DD09479251177
:100FF000290030319F2C00D9073101730D2B43D0CC
:101000000F2121400C003034092901DD37310C005B
:1010100044730E2B38D0D1790C11220030329F2925
:1010200000D9073282730F2B2ED00F220A401100F5
:101030003731092A01DC30321100C173102B23D063
:1010400010300023037030BD07345AE737310C00ED
:1010500063E707316CE737310C0074E707317DE750
:1010600037310C0085E707318EE737310C0095E703
:1010700007319DE737310C00A3E70731AAE7373185
:101080000C00C4720C2BB1D1C018DAE7140901208E
:1010900030B5002589B004000922002101A800957F
:1010A0000CF09EFE0922002105A804950CF098FE84
:1010B0004B236A466846137004A90D2248F0DCF8F9
:1010C00015210822200069440CF090FE09B030BDC3
:1010D000EFF3108072B6034A1368002BFCD0BFF305
:1010E0005F8F70472C0100D0BFF35F8F0022024B4F
:1010F0001A6080F3108870472C0100D070B5EFF3B0
:10110000108C72B60D4D2B68002BFCD0BFF35F8F97
:101110000724CB08C618C05C01230C40A3401C0068
:101120000440034207D103433370BFF35F8F2C6049
:101130008CF3108870BD10000AF048FE2C0100D01E
:10114000F8B54746CE46884680B5EFF3108C72B6A8
:10115000214D2C68002CFCD0BFF35F8F9A422CD815
:10116000D4080727055D061901241740BC402C420E
:101170001FD007210127894609E0D408055D06191B
:101180004C4639001440A1400C00294211D00132D4
:101190009342F2D201204042BFF35F8F00220E4BF8
:1011A0001A608CF3108800280FDBC0BCB946B0462B
:1011B000F8BD2C4310003470EEE7BFF35F8F0023BF
:1011C0002B608CF31088012040424346002BECD06A
:1011D00008980AF0FBFDC0462C0100D030B5EFF3B3
:1011E000108C72B60A4C2368002BFCD0BFF35F8FC3
:1011F00007230122CD0819408A40435D934343559C
:10120000BFF35F8F002323608CF3108830BDC0468E
:101210002C0100D00021044B044ABFF35F8F02C3AE
:101220009342FAD17047C046000100D0800100D03F
:10123000044A1078431CDBB2172B00D9102313701B
:101240007047C0468820002000B5054B83B00100E0
:10125000009318221F230348FFF772FF03B000BD5D
:101260006C9404106C4C0020142310B501001888F5
:1012700004331B88984710BD162310B50100188849
:1012800002331B88984710BDF8B54746CE4680B557
:101290000F1E19D01423994604330400002501269B
:1012A00098464B461888434621681B88984701C4D6
:1012B000431E9841013540420640AF42F1D1300013
:1012C000C0BCB946B046F8BD0126F8E730B50C20E1
:1012D00083B001F09DFCFFF733FB00280ED0994B43
:1012E000994A1A605A609A60DA601A615A619A6182
:1012F000DA611A62954A5A6203B030BD944CA06715
:1013000001F0DAFC0122934B1A60636C012BFCD1D3
:101310000322914B1A608E4A936B012BFCD101334F
:1013200001218E4A8E480093043301F021FC0523ED
:101330008C4A009301218C4801F01AFC8B4B5A68AF
:10134000FF2A02D8802252005A6080227D4C824BB4
:1013500021691201854D1A60002907D060690CF0DF
:10136000B1F8431C5800C0180338FDD2E0217F4B70
:1013700002201A681140802252012A431160196824
:10138000484003210140116004219A681142FCD0B9
:101390008022802192012A4309011160802252009B
:1013A0005A60734B2361734B5968FF2900D85A6008
:1013B0000321684A6F4B116002399A681142FCD0D0
:1013C000E0201A681040802252011A431060186809
:1013D0004840032101400220116066498A6810429A
:1013E000FCD0802292011343802212011A608022D5
:1013F000614B52004A606361604B5968FF2900D815
:101400005A6080225E4BE16912015C4D1A6000292E
:1014100007D060690CF056F8431C5800C018033818
:10142000FDD2E02255490B681A4080235B012B4313
:101430001A60802380229B012B4312011A608022B4
:10144000414B52004A60E3614E4B5968FF2900D876
:101450005A6080224C4B216A12014A4D1A600029C1
:1014600007D060690CF02EF8431C5800C0180338F0
:10147000FDD2E02243490B681A4080235B012B43D5
:101480001A60802380229B012B4312011A60802363
:1014900080225B004B602C4BD20223623B4B59688D
:1014A000914200D25A608022394B616A1201374D55
:1014B0001A60002907D060690CF004F8431C58003A
:1014C000C0180338FDD2E02230490B681A4080234F
:1014D0005B012B431A60802380229B012B43120166
:1014E0001A608023DB024B60184B6362294B5A68F9
:1014F000FF2A02D8802252005A608022264BA1691E
:101500001201244D1A60002907D060690BF0DAFF40
:10151000431C5800C0180338FDD2E0221D490B6857
:101520001A4080235B012B431A60802380229B0199
:101530002B4312011A6080235B004B600E4BA361AA
:10154000DAE6C046704C0020006CDC021BB70000DD
:10155000008000403CB0004030B00040002F68598F
:1015600000800240008C864700C00240308000406E
:10157000001BB7003C800040405973075480004076
:1015800054B000406080004060B000406C8000407B
:101590006CB000404880004048B00040014B8000E3
:1015A000C0587047704C0020094A8300944640227E
:1015B000634410B51C68C0006240C02414408022FF
:1015C000520113431C60034B9C466044416010BDB4
:1015D00004C00140004001400A4B80009C460423A7
:1015E0006044002901D00C230821002A00D10B00FF
:1015F000026853400C221A4080235B0118430260AA
:101600007047C04604C00140084B80009C466044BF
:10161000002905D080239B011843022303607047F3
:10162000C0239B01184302230360F8E704C0014074
:10163000D0231B061B6830B50500581E83410F4898
:101640005C42844607203023284023408000EC0879
:10165000814020000A4D3C3063448000A400415189
:101660001B19002A04D0802292011343196030BD57
:10167000C022920113431960F9E7C04600410140BE
:1016800000400140D023F0B5C64604001B06984632
:101690001B680C4F9B00F8580D00160000B5044263
:1016A00009D1044332002900FC500D2000F09CF8C1
:1016B00080BCB846F0BD0AF0A1FB43461B689B0006
:1016C000F858EEE70409012010B504000D2000F0E1
:1016D0007FF9D0231B061B6802499B005A58A2437E
:1016E0005A5010BD040901200123D0228340120664
:1016F00093629361094A83009446402263441968C7
:10170000C0004A40C0211140802252011343196099
:10171000034B9C46052360444360704704C001406E
:101720000040014001238340002904D0034A136094
:10173000034A13607047034A1360FBE780E200E04E
:1017400000E100E080E100E001238340014A1360F2
:101750007047C04600E200E0084B10309B688000F4
:10176000C358002B07D0064A00209B1A47229A42F2
:101770004041C0B270470020FCE7C04600ED00E0E9
:101780008C200020024B10309B688000C0587047AE
:1017900000ED00E070B50D00EFF3108672B60F4A51
:1017A0001368002BFCD0BFF35F8F0D4B10309B688C
:1017B00084001B590B4A934203D09D4201D00AF08A
:1017C0001DFB074B9B681D51BFF35F8FBFF35F8FFE
:1017D0000022024B1A6086F3108870BD240100D0ED
:1017E00000ED00E0CD010010F0B557464E46DE4654
:1017F0004546E0B585B0060002911700EFF3108B67
:1018000072B6674A1368002BFCD0BFF35F8F0025C8
:10181000644B5D579A46002D00DAA4E06B00624CE1
:1018200003935B199B009846A146C1444B46524620
:101830009B79103613705D4BB2009B6801929958EA
:101840000B1B472B34D95A4B994200D0A4E0039B81
:10185000584A9C46584B6544AD0063534346023397
:101860006519E418554B0121043B1B1B1B055B0D3F
:1018700013436B80524BEF71AB80FF23AB71029B24
:10188000AB604B460B431900484B019A9B6899503B
:10189000BFF35F8FBFF35F8F0022414B1A608BF362
:1018A000108805B0F0BCBB46B246A946A046F0BDC4
:1018B00001200A008243D379BB422FD845464E46C9
:1018C000130040491B1B5B415943090D3A4B6353BD
:1018D0003A4B02356519043B5B1B1B05354D5B0D0F
:1018E0002B4373800426B446E0444444131F1B1B5F
:1018F0004C46A17102991B05A16049465B0D2B4323
:10190000A380314BE77101431360BDE75800C01855
:1019100080002018C679BE422BD902000623D35678
:10192000002BF3DA101D82462848804604267642B2
:10193000B446E14450464E46361A3005400D8246C4
:1019400056461C48957106439680039A9446654412
:101950001D4AAD00641922604246A371029BA28019
:10196000E771A36090E70AF049FA002553465D57F6
:1019700054E7101D82469088400500158446404675
:10198000D444664604302018301AE0260005400D85
:10199000360230438046C9E70AF030FA57E7C046BE
:1019A000240100D0810A01208C20002000ED00E0FD
:1019B000CD01001000E0FFFF00A1FFFFD4200020B8
:1019C00001BDFFFFAAAA00000148804701BD000039
:1019D000F0B5DE4657464E464546E0B50C0083B0AE
:1019E000EFF3108972B6584A1368002BFCD0BFF38E
:1019F0005F8F564B9A68030010339F00D559544AA5
:101A00009046954232D0A54243D0524EAA1B472A57
:101A10002CD801228240924651464F4A126811400A
:101A2000019151464D4A1160BFF35F8FEFF305827C
:101A30009346002A33D101232A009A4393689C429B
:101A400008D177E04B005B189B00F3189968A1421E
:101A50002AD01A00062151560029F3DA019B002BE7
:101A600019D052463E4B1A603B4B1A60374B9B686D
:101A7000DD51BFF35F8FBFF35F8F0022324B1A60DF
:101A800089F3108803B0F0BCBB46B246A946A04615
:101A9000F0BD1500EAE75246304B1A60E6E7934284
:101AA000C9D00AF0ABF9C6E706215956002921DB57
:101AB0004A005018800034188046A0689860E07989
:101AC000D871062020569871002824DBA488F01ACB
:101AD0006405241544440019E0240005400D240247
:101AE0002043988052181F4B9200B6181A7819702C
:101AF000B271B3E7594600290FD1FF3191711A49EC
:101B0000918018490A789A71184A9B1B5B415A4385
:101B1000120D0A70A2E71648E3E7164A1649D21AD0
:101B2000083A5002400D01439980144952080A4373
:101B3000DA8093E70621515613000029B8DA5A4695
:101B4000002AEAD14546DCE7240100D000ED00E0A0
:101B5000CD0100108C20002000E100E080E100E0D9
:101B600080E200E0810A012001BDFFFFAAAA000077
:101B700001BD0000DE20002000F0FFFF00F8FFFFA5
:101B8000032310B50400074A18409446C0009C4344
:101B9000FC3383406444226881409A4313000B4322
:101BA000236010BD00E400E070B5EFF3058101246F
:101BB0000443EFF3108C72B6274A1368002BFCD055
:101BC000BFF35F8F254A0500254BAD1A6D416B436E
:101BD0001B0D244D8900AE685BB27658A64224D016
:101BE00006215156994224D01221515699422AD0A9
:101BF0001E215156994228D02A215156994226D069
:101C000036215156994224D04221515605249942F9
:101C100010D0154A117813708171BFF35F8F0022C5
:101C20000D4B1A608CF3108870BDAA680F4C54508D
:101C3000EFE700246100091989005218FF21917112
:101C40000B499180E5E70124F4E70224F2E703243D
:101C5000F0E70424EEE7C046240100D08C200020E9
:101C6000AAAA000000ED00E0810A0120CD010010C9
:101C700001BDFFFF054B064A1360064A136053601F
:101C80009360D3601361536193617047808080805B
:101C900000E400E004E400E01F2110B5091A024846
:101CA000FFF79CFA10BDC0468B0A012000B5074B18
:101CB00083B001000093002205230548FFF740FA96
:101CC000002801DB1F23181A03B000BD88940410FC
:101CD0008B0A012070B504000E001500FFF7A8FA6A
:101CE0000100200000F006F8A680E580BFF35F8FBA
:101CF00070BDC046024B9C4661448900016070473C
:101D00004000003410B50400FFF792FA01002000F3
:101D1000FFF7F0FFFF232371BFF35F8F10BDC046B5
:101D200010B50400FFF784FA01002000FFF7E2FF7E
:101D3000FF23A380BFF35F8F10BDC04610B5040022
:101D40000120FFF781FA044B9C466044800020602C
:101D5000BFF35F8F10BDC04640000034034B9C466C
:101D6000614489000160BFF35F8F70474000003419
:101D700083680B4810B5844661446244090112012E
:101D80009A18591854684B6801209C4201D802D017
:101D90000020C0B210BD12680B689A42F9D8F7E76C
:101DA000FFFFFF0F0A4B1968EFF3108072B60A6845
:101DB000002AFCD0BFF35F8F1B68BFF35F8F002248
:101DC0001A6080F3108840BF002000217047C04691
:101DD000200A0120F8B557464E464546DE46E0B596
:101DE00099460CAB1C780DAB1B78060090469A46C2
:101DF0000768002C11D1BC7B002C42D065003B68E9
:101E00002D19033D59194B78BB73002B00D1FB737F
:101E100000238B704B700B7004E065003B682D193C
:101E2000033D5919B2682A4B94464246E3181B01F8
:101E300063441A604A465A600A9A9A600B9ADA60BA
:101E400000238B704B700B707B7B9B46002B2BD041
:101E500022005946B8687B6898473A68002816D02F
:101E60005B4658465B005B445519033BA870D1188C
:101E7000D35C002B00D06B705B460C707B73A3456A
:101E800013D0F0BCBB46B246A946A046F8BD5B469F
:101E90005B005B44033BD3189C705119525D002AD0
:101EA00000D05A705B460B707C7342464B46307DC7
:101EB00000F0FCFB051E06D05346002B03D1210089
:101EC000306800F017FE0E9B002BDAD01D70D8E7AB
:101ED000FFFFFF0FF0B5DE4657464E46454600234E
:101EE000E0B58BB00893674B8200D45800239B4623
:101EF000099000F051FB626806000F00EFF31085B7
:101F000072B61368002BFCD0BFF35F8F23689C462A
:101F10005B7B9946002B00D169E0A2685A4B904642
:101F20004B441B01984443461A685B681000190033
:101F3000801BB941002900DC63E0099800F0B6FB82
:101F400000230022984600230692079300239A4616
:101F50006368BFF35F8F5A461A6085F31088534653
:101F6000002B08D10028C4D10BB0F0BCBB46B24650
:101F7000A946A046F0BD089B414618024B461843AF
:101F8000D047626806000F00EFF3108572B6136841
:101F9000002BFCD0BFF35F8F002F50DB33003B439F
:101FA00002D02369002B61D12368D97B002907D097
:101FB0004A00521819688C4649466244033A5170E7
:101FC0009A7B002A01D14A469A734A46DA734B46F5
:101FD000E168013BCA5C0132CA545B462361636815
:101FE000BFF35F8F5A461A6085F3108881E700239C
:101FF00000229846002306920793002300209A4669
:10200000A6E7002902D1002800D096E7002160460B
:1020100000F0EEFC43461A685B680692079343465D
:102020009B689A464346DB689846E3684B44013B0D
:102030001B7808931B0203432361002088E7236970
:10204000002BB1D0069A079B921BBB41002B15DBDE
:10205000594604910121039149460291414601915B
:10206000514620000091FFF7B5FEB6E700F094FA64
:1020700032003B0012184B41002BE9DA0122034BDE
:102080005242E5E738F90020FFFFFF0FFFFFFF7F17
:1020900010B5144C6368002B04D00A211248FFF7D6
:1020A00029FE10BD2300114A1021206800F0BAFB60
:1020B000032000F065FA032000F062FB03200C49C6
:1020C00000F0AEFAFFF7B4F80A4B9C4603232375E1
:1020D000D0231B061B6860446375074B800060605B
:1020E000DC60DAE7EC200020200A0120711D0010DE
:1020F000D51E00104000003438F900200048704719
:10210000EC200020F0B54E464546DE465746E0B589
:1021100085B0019310AB1B7806000393002399460A
:10212000984600927268EFF3108B72B61368002B1A
:10213000FCD0BFF35F8F3568AC7B002C3DD06700CF
:102140002B683F19033FDB195A78AA73002A00D184
:10215000EA73B168474A8C4600980199A2181201A7
:102160006244106051600E9991600F99D1604246AF
:102170009A705A701A706B7B9A46002B67D02200B7
:102180001900A8686B6898472A68002852D05346FF
:1021900050465B005344D719033BB870D118D35C49
:1021A000002B00D07B7053460C706B7354454FD09E
:1021B000F3681B19013B187800E000207368BFF337
:1021C0005F8F42461A608BF31088002C4FD04B462D
:1021D000002B08D10002204305B0F0BCBB46B2463C
:1021E000A946A046F0BD039B002B3ED00E9B0020CD
:1021F0000F999847030004000D000B4335D00029C8
:102200000ADA009A019B121BAB4100920193002B4A
:102210000ADB039B994685E700F0BEF924184D417F
:1022200000940195002DF4DA0123134C5B420093D6
:102230000194EEE753465B005344033BD3189C7074
:10224000D119D25D002A00D05A7053460B706C73BE
:10225000307D009A019B00F029FA81460028A7D022
:102260002100306800F046FCA2E70020B4E701201E
:102270004042B1E7FFFFFF0FFFFFFF7F70B5040093
:10228000002933D04268EFF3108572B61368002B33
:10229000FCD0BFF35F8F2068CEB2437BB34216D031
:1022A000FF230B405A00D318026894466344033B53
:1022B0009B78002B0BD12269914219D000206368D2
:1022C000BFF35F8F00221A6085F3108870BDFF2373
:1022D0000A0A0B40E168D2B28C466344013B19788C
:1022E0009142EBD1310000F005FCE8E70020EDE77A
:1022F0002361E3E7407D7047F0B504000D0006263A
:102300007642F717C64636196F4100B584B08F4242
:1023100014D811D000F040F932003B00121A8B4162
:10232000002B15DC002B3ED02000290000F068F9BE
:1023300004B080BCB846F0BD8642EBD90026002729
:1023400000F02AF932003B00121A8B41002BE9DD24
:10235000002302930193154B3200009314483B0075
:10236000FFF7D0FE0028DFDB00239846BC46114A69
:10237000114F7B6A9C4504D8B96A8E42D4D99C45DA
:10238000D2D11168EFF3108072B60B68002BFCD02D
:10239000BFF35F8F1368BFF35F8F4146196080F30F
:1023A000108820BFE5E7002ABED0D1E7A51D0010A8
:1023B000EC200020200A01200040054070B50600F6
:1023C00000F0EAF8FA2204000D000023300000219A
:1023D00092000BF02BFC00196941002902DBFFF78A
:1023E0008BFF70BD012001494042F8E7FFFFFF7FEE
:1023F000F0B5EFF30583CE46474680B505000C00E7
:1024000085B0002B12D02C4A0020536A9C4203D87E
:10241000926A0130AA4204D305B0C0BCB946B046A6
:10242000F0BDE01A421E9041C0B2F5E7234E029380
:102430000193234B0200009330000B00FFF762FE74
:10244000031EE0DD20BF7168EFF3108772B60A68E3
:10245000002AFCD0BFF35F8FDAB294463068427B2B
:1024600062451DD0FF221A405100894601689144FF
:1024700088464946414403398978002913D0F168D8
:102480001B0A88464244013A1278DBB29A420FD0C6
:102490007368BFF35F8F00221A6087F31088B2E77A
:1024A000FF221A40EBE732699342F1D13161EFE745
:1024B000614600F01FFBEBE700400540EC200020E8
:1024C000A51D0010F0B5EFF30582D6464F464646EF
:1024D0001000C0B51038EFF3108872B6214C236895
:1024E000002BFCD0BFF35F8F0123190081401E4DEC
:1024F0001F006963AA461D4D29601D4D2E78AC460C
:102500003500C5402F402B4209D1BFF35F8F2760B4
:1025100088F31088E0BCBA46B146A846F0BD5346E1
:10252000144D5F6A83005D59AF420ED3124A8E4349
:102530009B5862461670BFF35F8F0022226088F3BB
:102540001088002BE6D09847E4E70C4B92009C469D
:10255000624413681360BFF35F8F0023236088F326
:102560001088D7E7280100D0004005403C700540A6
:102570008A0A01202C0A01203C4A0020D03F054055
:1025800010B50100024A0348FEF7B8FD10BDC04671
:10259000B09404107D0A0120034B596A0A00986A1E
:1025A000596A8A42FAD170470040054070B504006C
:1025B0000D00124A536A1900966A536A8B42FAD187
:1025C0003000190024184D41AB4211D80ED02B0019
:1025D0000A494A6A9A42FCD307D1084A02E0516A82
:1025E000994202D1916AA142F9D370BDA642EED9B7
:1025F000012301246442E5175B42E9E700400540FE
:10260000064A536A9942FCD807D1044B02E05A6A41
:10261000914202D19A6A8242F9D370470040054044
:1026200070B504000D00EFF3108672B61A4A1368F5
:10263000002BFCD0BFF35F8F002D1BD02000FFF7D5
:10264000A1F8164981420AD02000FFF7A3F8012122
:102650002000FFF767F80123A340114A1360114BD4
:10266000A400E550BFF35F8F00220B4B1A6086F386
:10267000108870BD0B4BA200D5500122A2400A4920
:1026800020000B7893430B700449FFF7A1F9002158
:102690002000FFF747F8E5E7280100D0C524001027
:1026A000386005403C4A00208A0A0120F0B54F46B8
:1026B000D6464646C0B507002C4C616A0D00A66A96
:1026C000616AA942FAD18B4208D805D00120E0BC4A
:1026D000BA46B146A846F0BDB242F7D9EFF3108A28
:1026E00072B6234801680029FCD0BFF35F8F012533
:1026F000BD4020491D4C8846097889462943C9B206
:102700008C46414660460870391D1B488900656348
:102710000A51B9000B50216A0020294219D0616A80
:102720000800A66A616A8142FAD18B4219D801D1A8
:10273000B24216D8CC4516D00C4B1F201D625D63EB
:1027400001230740BB400D4A1E38136043464A46EA
:102750001A70BFF35F8F0022054B1A608AF310884E
:10276000B5E70020F5E70120F3E7C046004005404B
:10277000280100D08A0A01202C0A012080E200E012
:10278000EFF3108C72B60A490B68002BFCD0BFF334
:102790005F8F01238340074A0748136202789A43F8
:1027A0000270BFF35F8F00230B608CF310887047BB
:1027B000280100D0004005408A0A012070B50500BC
:1027C00014001600002915D00C00002A12D08068D1
:1027D0006B689847296800280ED073009B19620027
:1027E000033B1219CB18033A9C7088188A5C002AA4
:1027F00015D10670200070BD63001B197200033BE9
:102800009219CB18033A9E7088188A5C002A02D16C
:1028100004703400EEE75A7004703400EAE75A702E
:102820000670E7E730B583600023CCB24373013311
:10283000047342608373C4730D000068012C06D9D1
:10284000421C0133DBB2137003329C42F9D1FF21E9
:1028500029404B005918002340180338437030BDFD
:10286000F8B5CE46474606000C0080B5002907D0D3
:102870004D0003686D18033D5A195778002F04D195
:102880002000C0BCB946B046F8BD7900C91903396B
:1028900088464344597889460021597051707368BD
:1028A0003A002100806898473368002814D04246D7
:1028B0009A18947059195B5D002B00D053700F70FB
:1028C000270049463000FFF7CBFF390002003000F7
:1028D000FFF774FF0400D3E7424641465D19AF702D
:1028E0009A185B5C002B00D06B701470E9E7C0464F
:1028F000F0B557464546DE464E46E0B50D006B0046
:1029000001685B19DF1E0400C85D83B00192CA191B
:10291000002850D043001B18033BCB185E78B44608
:10292000002E1AD1019E002E42D0E67B002E04D04C
:1029300073009B19CB18033B5D70A37B002B00D168
:10294000A573E57300282FD10023537003B0F0BCAA
:10295000BB46B246A946A046F0BD72006244033AA7
:1029600089184A78904600224A7091465A700100B0
:1029700032002000FFF722FF43468246002B07D09B
:102980005B0021684344033BCB185A78002A16D1D8
:10299000424651462000FFF711FF2168019BCA19EA
:1029A000002BC2D10028CFD043001B18033BCB180B
:1029B00000219970C8E7019B002BB6D1C4E75000F5
:1029C000801803380918487883464846487058707C
:1029D00041462000FFF7F2FE594680462000FFF7EF
:1029E0003FFF414602002000FFF7E8FE8046CFE7A8
:1029F000F0B557464546DE464E46E0B583B00191F8
:102A0000457B04006B0000685B19DF1EC15DC219C5
:102A1000002952D04B005B18033BC3185E78B446C4
:102A2000002E1CD1019E002E44D0E67B002E04D047
:102A300073009B19C318033B5D70A37B002B00D16F
:102A4000A573E573002931D1002328005370617309
:102A500003B0F0BCBB46B246A946A046F0BD72002A
:102A60006244033A801842789046002242709146B0
:102A70005A7020003200FFF7A1FE43468246002B29
:102A800007D05B0021684344033BCB185A78002AE7
:102A900017D1424651462000FFF790FE019B0100EE
:102AA0002068C219002BC0D10029CDD04B005B1883
:102AB000033BC31800209870C6E7019B002BB4D1DC
:102AC000C2E7500080180338091848788346484602
:102AD0004870587041462000FFF770FE5946804606
:102AE0002000FFF7BDFE414602002000FFF766FE12
:102AF0008046CEE770B5040000292CD0437B8B4282
:102B00002ED0056848004018033828188278002A1B
:102B100021D053009B18033BEA5CEE188A4202D195
:102B20001BE0002A08D053009B18033BEB185A788F
:102B30008A42F6D142785A70002301228370437092
:102B40002000FFF7D5FE617B02002000FFF736FE74
:102B50006073012000E0002070BD43783370EBE724
:102B600001221900FFF7C4FE60730120F4E7C0469C
:102B7000F8B5040021481D0017000E000AF0A2FC61
:102B8000010038000AF09EFC069B29041B03194330
:102B90002368002B20DB1A4B1A4DE21853425A418E
:102BA00080235B019C461203174B62441A60174B4B
:102BB0001A601700AB689F43FBD1C022231D92010E
:102BC0001A4321232660A06013602368002BFCDADF
:102BD0000823E1601360F8BD3F2322681340B3422D
:102BE000D9D1A3681B051B0D8342D4D1EE22E36823
:102BF000D20213408B42CED1EDE7C046001BB70096
:102C00000040FDBF00C0004000E0004000F0004078
:102C10008023024A9B000343D36270470080054033
:102C200010B5140080221B4BD2051A6000281AD060
:102C30000123194A1843194BDA61194A42401A62B2
:102C4000596298628022134BD2051A601549164AC0
:102C50001160E022D2041A60002C07D18022134BAD
:102C600012061A6010BD0D4BD861EBE763011B1B08
:102C70009A008023121912015B049A4200D30C4A75
:102C80000C4B1A60054B5A608022084BD2051A6023
:102C9000E8E7C04600B00540D3C007B0008005405B
:102CA0002D3FF84FFCFF01000820014000A0054027
:102CB000FFFFFF00A05F0020AA23064A1B0113604C
:102CC0002F230549D360054B19605368002BFCDAAC
:102CD0007047C0460040024000B0FA000060024069
:102CE00010B501F08FF900F0E9FA00F0ADFC00F04A
:102CF00053FD02F0FDFE01F015FA00F057F902F065
:102D000067FE10BD40BA80B27047C04600BA704737
:102D1000F8B54746CE4680B50701040038180001D3
:102D200010308146404D414E2B688846B144002BFF
:102D300002D02A7AA24258D0EB68002B02D02A7D1A
:102D4000A2424BD0AB69002B03D02022AA5CA24246
:102D50003DD06B6A002B03D02C22AA5CA2422FD05C
:102D60003B191B01F318DB7B002C04D0B27A022A3A
:102D700041D0012C06D08D225200B25C022A43D0F1
:102D8000022C05D02A4AB25C022A43D0032C03D07D
:102D9000284AB25C022A42D0032B0DD8264D9B0054
:102DA000585903F06DF800223C1924013619F37BC1
:102DB0009B005A510423F373C0BCB946B046F8BD1A
:102DC00041464846AA6A984700236B62C8E74146D5
:102DD0004846EA6998470023AB61BAE7414648464E
:102DE0002A6998470023EB60ACE748466A68984731
:102DF00000232B60A0E7F27B9A42BAD104233C194E
:102E000024013619F373D7E72022FF32B25C9A42CD
:102E1000B6D1F3E7094AB25C9A42B7D1EEE7084A65
:102E2000B25C9A42B8D1E9E7F8560020305700204A
:102E30002A0200003A030000E85600202F0200009A
:102E40003F030000F0B5DE464E46574645468346F2
:102E5000E0B5030187B04F4A01935B441B01D618CC
:102E6000F27A012A00D992E04B4992008C58002C4A
:102E700000D17FE010331D00464B9C46654428007E
:102E80003BF0E8FEA022123081B29200362000F022
:102E9000CBFD8146002866D003AC0C220021200027
:102EA0000AF09EFF3089FFF72DFF01232080A370D9
:102EB0000C22FF3321004846A38000F0D9FF374B96
:102EC0000C269A464F46013D6B1C98466B780024B1
:102ED00045462E2B06D156E06B7801340135E4B21D
:102EE0002E2B01D0002BF7D14346EB1A9BB299460B
:102EF0002300F318534542DC22003100380001F072
:102F000053F8731C4A469BB234194146380000F00E
:102F1000EBFFA3B22A785E1CB6B2002AD4D11C0003
:102F20003100380001F040F81D4B023404220293B6
:102F300002A9A3B2380000F0D7FF164A019B9446BD
:102F400015495B441B0163448C46DA7ADB7B1549E7
:102F50009B009200585862443523390002F01AFF52
:102F6000380000F067FE07B0F0BCBB46B246A94689
:102F7000A046F0BD0021FFF7CBFEB472F3E73800A6
:102F800000F058FEEFE7002200239146B1E7064823
:102F900008F01CFF3057002028570020FEFF0000DB
:102FA00000010001E8560020D49404107047C04688
:102FB00082B0012801D902B070478000002903D0F7
:102FC0000A68044BC250F6E7034A024B12680192AA
:102FD000C250F0E7285700204CA50410F0B5464633
:102FE0004F46D646464BC0B5464E8D273400002589
:102FF00098467F00A37A022B35D02CD8002B1FD007
:10300000414B9946414B9A46FDF75AFFB37A80B23D
:10301000022B40D0F35D022B43D04B46F35C022BD6
:1030200048D05346F35C022B4DD002230122A372F9
:1030300000232081E372280022736373FFF702FFED
:1030400001351134EDB2FF34042DD3D1E0BCBA46C2
:10305000B146A846F0BD032B4ED12368002B13D1F7
:103060000023A372ECE7237B013BDBB22373002B2D
:10307000E6D1637B0133DBB26373042B29D0237366
:103080002800FFF7DFFEDBE7013B2360002BD7D1F1
:103090000023A372D4E733898342B5D0F35D022BBA
:1030A000BBD11733FF33F35A8342ADD04B46F35CA9
:1030B000022BB6D18A239B00F35A8342A4D05346F5
:1030C000F35C022BB1D1CE239B00F35A8342ACD1E7
:1030D0009AE7E37A002B08D142465268002A04D0CE
:1030E00001226373E2722273CAE700212800FFF70E
:1030F0000FFE0023A372A3E7054808F067FEC04651
:1031000028570020305700202A0200003A03000010
:1031100008950410F0B583B06B469C1D00232380F6
:1031200001331E000640184205D0002903DD037854
:10313000013963700130032213000340104205D0AF
:103140000023012938DD03880239023007294BDDCD
:10315000083907220F009743020005000832BF1804
:103160002A689A189A429B415B42D2186B680835CC
:10317000D3189342924152429B18AF42F0D1CA08F1
:10318000551CD200ED00891A1A044019120C1B0CB0
:103190009B18012910DD02889B188A1E012A05DD73
:1031A00045885B19052901DD81885B1851084D1C94
:1031B0006D0049004019511A012901D1027822708D
:1031C0002288D218130C1204120C9B18180C1B0422
:1031D0001B0CC018002E04D0030600041B0C000EAC
:1031E000184380B203B0F0BD1A00D0E7F0B54F46E7
:1031F000D6464646C0B591461A68089B8A46196865
:1032000004000B041B0C090C5B181104090C591861
:10321000130C5B18180C1B041B0CC318180C1B0494
:103220001F0CC719002C21D0FF230026012598462A
:1032300061896068FFF76EFFC019030C0004070C7A
:10324000DF1963891D4207D042463B06380A1B0C32
:10325000104003431F006E402468002CE8D1002E6C
:1032600004D03B063F041B0C3F0E1F43534698B24D
:10327000FFF748FD04004846FFF744FD2018C01939
:10328000030C0004000C1818030C0004000C1818A0
:10329000C04380B2E0BCBA46B146A846F0BDC046C5
:1032A00010B582B0049C0094FFF7A0FF02B010BDDF
:1032B00010B5FFF72FFFC04380B210BD03220A4BA9
:1032C000002103339343094A09481360FA2212018B
:1032D00019719918016001201A6008710549995007
:1032E000054A13607047C04650F9002048F9002095
:1032F0004CF90020A00FA00F9C5F0020F0B5D6462F
:103300004F464646C0B500285DD0830700D069E02F
:103310000300394A083B12689A4260D837490C309A
:10332000096881425BD31879002861D0FA201D8892
:10333000000185420CD85C88A246844208D8981ABD
:1033400080B280461619A04205D03088404502D090
:103350002B4808F03BFD5019814202D04488444577
:10336000F6D100241C71274CA44624689C4202D943
:10337000644623601C00994237D9834213D00779F1
:10338000002F10D181420ED0A04224D005881D808C
:103390000188FA200001814205D04046511848803A
:1033A00059888A465618B3420DD0317900290AD17E
:1033B000A3420DD0FA2135801B8809018B4202D02F
:1033C000D31852465A80E0BCBA46B146A846F0BD72
:1033D00061460E60EEE761461C000B60D6E70A48C6
:1033E00008F0F4FC094808F0F1FC094808F0EEFC8C
:1033F000084808F0EBFCC04648F900204CF90020D2
:10340000909504109C5F00204C95041028950410A2
:10341000C495041068950410F0B5C6463B4BCA1C11
:1034200000B513400B2B3FD9FA22120193423ED82C
:1034300099423CD8364A146884425ED8354A1268AC
:1034400082425AD90500083D291B8AB290462E882F
:1034500041463200083A521A92B29A4250D320D0D2
:10346000A7193979002924D1FA22120196424AD0AB
:103470003A88294E9446424608329B1832689BB2DD
:10348000BA4237D0E2186146118041460026518089
:10349000FA2116712B80128809018A4201D0A218E4
:1034A000538080BCB846F0BD0C239942C2D900209D
:1034B000F7E71F001437BFB2BA42F2D342460832D0
:1034C0009B18FA229BB2120196421CD0124FE218AE
:1034D0003968914200D93A60414600275180FA216B
:1034E000177116802B80128809018A42D9D0A4183E
:1034F0006380D6E7E2183260C5E7084808F066FC4A
:10350000074808F063FC074808F060FCFCFF000077
:1035100048F900204CF900209C5F0020E095041041
:10352000F895041018960410F0B5D6464F46464656
:10353000C0B500282FD03D4CC31C1C400B2C30D9EB
:10354000FA231B019C4226D8A04224D8384BFA22E9
:103550009C461B6812019A46364B121B1E68534646
:103560009B1B98B21B0490461B0C9A4213D9082748
:103570007F4208E01588FB1A5B19A34213D22B0087
:103580002800434507D2F21811790029F2D010889B
:1035900003004345F7D30020E0BCBA46B146A84635
:1035A000F0BD0C24D0E71427B846A0444746BFB26C
:1035B000BB421CD2012308341371A4B21E4B1868FD
:1035C000130092450ED0A418A0422CD3100008304E
:1035D0009307E1D0194808F0F9FB1B88F318197913
:1035E00000291AD09842F8D163461860EBE7FA2711
:1035F0000834A4B203193F019BB2B946BB420FD0B5
:10360000F718397101213D80788013801171398854
:103610004945D3D071184B80D0E761460B60D2E7A3
:10362000074808F0D3FB074808F0D0FBFCFF000078
:103630009C5F002048F900204CF900205C960410A3
:10364000189604102C96041024230022F0B5474647
:10365000CE469046994603320425944680B5124FD3
:10366000124B134CB94441463A682160614603331A
:103670008B43002D0BD016880021002200E00300B0
:1036800001321960981919002360AA42F7DB043748
:10369000B94504D03A68946853685588E3E7C0BCDC
:1036A000B946B046F0BDC04650970410DCF000208B
:1036B00004F9002010B5082810D80B4B8000C4581E
:1036C000FDF768F8A3681C68002C03D022681A6014
:1036D000A30705D1FDF760F8200010BD0024FBE72B
:1036E000024808F073FBC04650970410A0960410DF
:1036F00070B50C0008280ED800290CD0084B8000AB
:10370000C5588B0708D1FDF745F8AB681A682260E9
:103710001C60FDF741F870BD024808F057FBC04639
:1037200050970410C496041070B505000C001600E4
:1037300082B000292AD043680A689A4201D102B0B7
:1037400070BD3360300001A9019201F0B1F9300081
:1037500001A902F0C1FB01A9300000F033FC3923BC
:1037600022686A60E95C343B0B40052B05D0EB69AD
:10377000002BE4D028009847E1E7002AF7D00B0798
:10378000F5D52800291D04F0EBF8F0E7014808F012
:103790001DFBC046749704107047C046F0B5040086
:1037A0000D0016001F0083B000294ED0002E4AD015
:1037B000002F46D02B680022002B0CD03368A16864
:1037C0008B4200D0A3603B68E1688B4230D1002A75
:1037D00031D003B0F0BD616801220029EED0684607
:1037E000009101A9019301F063F9684601A902F073
:1037F00073FB01A9684600F0E5FB39232A68626083
:10380000E15C343B0B40052B07D1002A05D00B07A8
:1038100003D52000211D04F0A3F8E369002B01D09B
:10382000200098473368A16801228B42CBD0C9E7BA
:10383000E360002ACDD16A4629002000FFF774FF1B
:10384000C7E7034FB6E7024EB2E7014DAEE7C04609
:103850004CA5041070B5041E16D04368002B17D178
:1038600039220121A35C194224D11D4B1A68A242BE
:103870002ED01C4A1368A34204D126E01A68A24243
:1038800003D01300002BF9D170BD22681A60FBE74A
:10389000051D0021280001F00BF90021280002F08D
:1038A0001BFB0021280000F08DFB39220121A35CC5
:1038B0001942DAD018008843A0541B070BD4E369DF
:1038C000002BD2D020009847CFE723681360DBE7B6
:1038D00000221A60CDE7200003F07EFFEFE7C0462C
:1038E00020F9002024F9002070B5041E03D03925EA
:1038F000435D5A0700D570BD04221343435503F0BE
:103900007FFA0523625D1340052B05D0236A002B47
:10391000F1D020009847EEE76368002BF6D013073C
:10392000F4D52000211D04F01BF8EFE710B50028A6
:103930000AD039220421835C194205D08B43835479
:10394000036A002B00D0984710BDC046021E0ED05F
:10395000084B1868002809D03C2102E000680028C4
:1039600004D0435C0133DBB29342F7D170470020AF
:10397000FCE7C04624F90020F8B505000026002821
:1039800026D00F270BE0012B24D0002B2AD12800B2
:10399000FFF7B4FC0136F6B2002C19D02500FCF775
:1039A000F9FEAC7B002C1AD0013CE4B2AC73FCF7FE
:1039B000F3FE002C0CD12B7B2C683B40022BE2D178
:1039C000290008200136FFF793FEF6B2002CE5D15E
:1039D0003000F8BD29000720FFF78AFEDAE7034828
:1039E00008F0F4F9024808F0F1F9C0468497041091
:1039F0009C97041010B5FCF7CDFE0022084B1A70FE
:103A0000FCF7CAFE074B1868002803D107E0C0681E
:103A1000002804D0436F002BF9D001F097F810BDB7
:103A2000850A01203C0A0120F0B5C1234F464646D5
:103A3000D6468046C0B50D00170084B25B009A429E
:103A40003FD008D81400433BFF3B9C43012C6AD075
:103A50003C4808F0BBF9A0239B009A42F8D1E31C34
:103A60000324CA1CA343A2439B189BB21800103026
:103A700080B293421ED382421CD8FFF755FD061E2A
:103A800019D0002303604346C71813372E4B29046F
:103A9000A7430D4347608560C3600CE0FCF77AFEE6
:103AA00001222A4B1A70FCF777FE002E02D030005C
:103AB000FFF762FF00263000E0BCBA46B146A846D8
:103AC000F0BD00239846224B00269A460023032788
:103AD000994607E043466D1AADB21860002DEAD052
:103AE000804600240820FFF7E5FD0028D6D0524686
:103AF000E31CBB43D31A1A1C9BB2AB4200D92A1C4D
:103B00004B46041903601334124BBC4391B244601A
:103B100005814281C360002EDCD16D1AADB2060072
:103B2000002DDDD1C7E70720FFF7C4FD061EC2D078
:103B3000002329040D4303604360856007734373CA
:103B4000C481B8E7B097041080000100850A012005
:103B5000EC0500008200010070B5041E34D002891B
:103B60008A421CD90D008A1A07E023896D1A9B1816
:103B700023812468ADB2002C20D06189A942F4D3FE
:103B8000237B1B0701D1A9420AD1290420682943BC
:103B9000A160002801D0FFF7EFFE0023236070BD75
:103BA00063682000191B691889B2FFF735FC0028EB
:103BB00007D08442E9D0064808F008F9054808F023
:103BC00005F9054808F002F9044808F0FFF8C04676
:103BD00018980410E4970410FC970410CC97041074
:103BE000030070B5002820D08022520291421AD2E0
:103BF000002916D002898CB2A21892B2944212D82F
:103C0000057B01207F2D0DD95D68691A1D001035D7
:103C1000A94207D359605989002064185C811A8130
:103C200000E0002070BD0120FCE7014808F0CEF85C
:103C30003498041010B5002802D0FFF79DFE10BD87
:103C4000014808F0C3F8C04634980410030000206F
:103C5000002B04D01B68013080B2002BFAD17047D2
:103C600010B50C0000281FD000291CD00368002BC1
:103C700007D0028921895218028118001B68002B85
:103C8000F7D102894389934214D1228904609B1899
:103C90000381FCF77FFDA37B0133A373FCF77CFD5D
:103CA000A37B002B03D010BD0029FCD0F1E7034813
:103CB00008F08CF8024808F089F8C04640980410D3
:103CC00054980410F0B54F46D64646468146C0B5D6
:103CD000884692461F00002900D184E00B89934258
:103CE00000D280E0002800D17DE053460289FB1815
:103CF0009A4200DA77E0002644890CE043465A896C
:103D00001B899A423DD04B465C891B899C424DD011
:103D10005346002B57D043465B89E41B9B1B9C42B8
:103D200000D91C005546A24500D925004B465B68CA
:103D30002A00D81943465B687F1999190AF056F88A
:103D4000534676195D1BABB29A464B465C89BC4222
:103D50004CD343465B89B3424BD305D143461B68E2
:103D600000269846002B17D0BC42C7D14B461B6893
:103D70009946002B1FD043465A891B8900279A4237
:103D8000C1D143461B68002BBDD006204042E0BC99
:103D9000BA46B146A846F0BD5346002B23D1BC42DB
:103DA00019D04B461B899C420DD100264B461B68FF
:103DB000002BADD0E9E75346002B14D143461A89B6
:103DC0005B899A4201D00020E1E743461B68002B43
:103DD000DBD10020DBE74B461B689946002BF2D075
:103DE00000275C89DDE710204042D0E7024807F059
:103DF000EDFF024807F0EAFF849804109C98041035
:103E0000F0B5C6460500884616001900002700B523
:103E1000002828D04346002B25D0002A05D122E0D7
:103E20002D68091B89B2002D1DD06C89002901D095
:103E3000A142F5D2641AA4B2321CA64200D9221CB7
:103E40004346D8196B6894B29C46361B22006144E5
:103E5000E719B6B209F0CAFFBFB22D68002E02D032
:103E60000021002DE1D1380080BCB846F0BDC0462D
:103E7000F8B5CE46474605008846914680B50028ED
:103E800024D0002922D0038993421CD31600002796
:103E9000002A02D112E0002D1BD06C89B44200D957
:103EA000340043466868D919220009F09FFF361B89
:103EB0002D683F19002EEED1B9450DD10020C0BCB0
:103EC000B946B046F8BD01204042F8E71020404214
:103ED000F5E7034807F07AFF024807F077FFC0468E
:103EE000B8980410D0980410F0B5D6464F46464610
:103EF00004008A46C0B5002805D13AE024685B1B5F
:103F00009BB2002C35D065899D42F7D921899F1835
:103F1000B9422EDBE91A8A4232DD8AB290466268E3
:103F20005146D0187D1B424609F060FFABB299465E
:103F3000002B1CD02568002D29D02B894B4518D388
:103F40004F46002601E0002D24D06C89BC4200D9E8
:103F50003C004346F11868682200514409F046FFCE
:103F60003F1B2D683619002FEDD1B14515D100202A
:103F700001E001204042E0BCBA46B146A846F0BD8F
:103F800060685146C01809F031FF0020F3E71020A7
:103F90004042F0E7024807F019FF024807F016FF19
:103FA000B8980410D098041005E043898B4205D8D6
:103FB000C91A006889B20028F7D1704743685A547B
:103FC000FBE7C04610B5002811D00268002A0ED0C9
:103FD00000290CD00B68002B09D0094B1B68002B63
:103FE00005D01C68944203D0DB68002BF9D110BDCA
:103FF0000A681A60DB68002BF9D00268F1E7C04656
:104000000C0901207047C04610B5041E23D0037D63
:10401000042B05D0072B0FD00020032B00D010BDA0
:10402000200000F0D7FF00280AD1052323752000C7
:1040300001F052F90020F2E700F0CCFF002807D091
:10404000431CECD10822638B002013436383E6E713
:1040500009232375EBE7014807F0B8FEE898041040
:1040600070B50600806F002803D0FFF7E3FD002342
:10407000B367746F002C18D06068256800280CD0D6
:10408000FFF7D8FD21000420FFF732FB002D0AD0F6
:104090002C00606825680028F2D121000420FFF779
:1040A00027FB002DF4D1002373670123F46E5B42DC
:1040B0003386002C16D06068256800280CD0FFF7E6
:1040C000B9FD21000420FFF713FB002D0AD02C00BE
:1040D000606825680028F2D121000420FFF708FB62
:1040E000002DF4D1346F002C16D0606825680028AC
:1040F0000CD0FFF79FFD21000420FFF7F9FA002DF7
:104100000AD02C00606825680028F2D12100042024
:10411000FFF7EEFA002DF4D100236822F36633672F
:10412000B35270BD10B5FCF7CBFE044B80049C4627
:10413000800C034B6044188010BDC04600C0FFFFD8
:1041400014210020F8B500281DD0037D012B34D0A8
:10415000028D1D4B511889B299421BD91900466A2C
:10416000458E1A4FC46A0185F3182A1CBD420BD82C
:1041700092B212199A1A11D5A41B1BD48022520292
:1041800094421DD24485F8BD3A1C92B212199A1A73
:10419000F2D403E08A42E1D80B00E0E70C4A418503
:1041A0001B1B9342EFD90222438B1343438301F03D
:1041B00093F8E8E700234385E5E7064807F006FEA5
:1041C000054807F003FEC046A02D0000D0160000F1
:1041D000670B0000489904102C990410F0B5DE46D6
:1041E000454657464E46E0B5BF4DC04A2B6887B09E
:1041F00001332B60BD4B1B7801331370BC4B9B46C6
:104200005B461C68002C00D1CCE000230593237D85
:10421000002B00D112E2012B00D115E20A2B00D1B4
:104220000FE2B24AA17F1278914200D158E1A27701
:104230004222A25C022B00D1FDE00B2A00D9F7E05C
:10424000A122A65C002E00D15AE1226F002A00D0E4
:1042500012E2E26E002A00D10BE2A222A25C0B2A3B
:1042600000D9E5E0A020A34A9619013E3178225CEE
:104270008A4200D28DE16023E15A002900D0B9E0E2
:10428000200001F0E1FA002800D0BFE0A0230022C6
:10429000E254A132A35C062B00D9B7E00127002627
:1042A0000133A354237D062B00D1B5E0082108007B
:1042B000627A10408046114227D0042B00D05EE184
:1042C0002B68226AFA219B1A99469423E3584900E5
:1042D0009A469823E35898469C23E058434658430F
:1042E000504409F0EFF8814500D93EE1A327434649
:1042F000E05DFA21434318004900504409F0E2F818
:1043000000239846814500D94AE1676F002F0AD003
:104310002B68226A9A1A4023E15E4B005B185B000F
:104320009A4200D305E1237D032B00D18AE0092BBB
:1043300000D0AEE02B68226A9B1AF02B00D887E0F1
:104340009023E6582000FFF78BFE059B002B00D141
:10435000ADE05B461B68A34200D17EE1059BE268AD
:10436000DA604346002B00D0ADE023699946E3684C
:104370009846237D012B00D16CE121000220FFF73C
:10438000B7F900235C4C2370002E07D00D2148465E
:104390004942B0472378002B00D031E74446002C37
:1043A00000D034E7554F00243968002904D11AE0C1
:1043B0000C00C968002916D00B7D0A2B00D046E1FD
:1043C0002B680A6A9B1AF02BF2D9002C00D1DAE094
:1043D0003B688B4200D143E1CE68E6600220FFF7E4
:1043E00087F9311EE8D107B0F0BCBB46B246A946FA
:1043F000A046F0BD200000F00BFD002800D045E7EE
:10440000200000F069FF002800D03FE7237D01274E
:104410000026062B00D049E7638BDB0605D52B6809
:10442000226A9B1A282B00D93E00002398466CE78D
:104430000227012637E7052A00D801E700230126D5
:10444000984662E72B68226A9B1A282B00D977E7E7
:10445000002E00D074E7237F627F0133DBB2E66871
:1044600023779A4212D80023234A237713708C3380
:10447000E358002B00D17CE02100206998471E4BB7
:104480001B78002B00D0BBE6002872D005943400C6
:1044900085E7002EDFD09022A658012B00D854E7E4
:1044A0000A2B00D04EE7059B002B00D051E75B465E
:1044B0001B68A34200D0D9E05B46E2681A6043461D
:1044C000002B00D151E7238B626A216D0293E38AAE
:1044D00020000193231D0093230000F05FFE44E7BA
:1044E0000594E4685BE7C0464C0A0120890A012074
:1044F0003C0A01202C9C0410870A0120500A01204C
:104500003022A15E5E48228E824202D8013211B270
:1045100021864022A25E01278A4200DDC3E62000F8
:1045200000F0EEFD002848D0236F002B42D0237D01
:10453000B9E67868A1463C6800280CD0FFF77AFB02
:1045400039000420FFF7D4F8002C0AD0270078683F
:104550003C680028F2D139000420FFF7C9F8002C8C
:10456000F4D14C4600236367DDE601233E00984604
:10457000CBE6200000F0B0FE059434000FE7072BD7
:1045800000D19DE651E73B688B426CD1CE683E601E
:1045900024E70132D2B222548A4200D237E76AE6D7
:1045A000200001F0E1F8002800D0AEE6E35D013321
:1045B000E355AAE6E36E002BB9D0237D022B13D07E
:1045C0003C22A35E3E21625EDB109B184222A15C6E
:1045D0000A1C0C2929D82B49D2B28A5C9340284A5C
:1045E000934220DC4022A3520023482123866033DB
:1045F000E25A605A131C824200D9031C4A209BB223
:104600005B082352618E4A0092B2934200D222523A
:1046100048230022E1522233E252200001F092F8B6
:104620000127237D3FE6184BDCE70C221549D2B267
:104630008A5C9340124A9342D4DDF4E7134807F0B2
:10464000C5FB134807F0C2FB124807F0BFFB124836
:1046500007F0BCFB114807F0B9FB114807F0B6FBA7
:10466000104807F0B3FB104807F0B0FB0F4807F005
:10467000ADFB0F4807F0AAFB0E4807F0A7FBC046AA
:10468000FE7F00001C9C0410FF7F00007099041046
:10469000C89904109C990410B89A0410F498041056
:1046A000609A0410E89A0410109B04108C9A04106D
:1046B000289A0410F499041010B5041E08D040681C
:1046C000002801D0FFF7B6FA21000420FFF710F808
:1046D00010BDC04610B50C1E47D0002848D0036856
:1046E0008B4204D12FE0DA68A24224D01300002BC1
:1046F000F9D10023E360237D002B0FD1638BDA0710
:1047000029D4E36E002B36D1236F002B36D1636F93
:10471000002B36D100232375E38210BD0A2BF0D085
:10472000012BF7D02000FFF79BFC237D0A2BE8D05C
:10473000012BEFD0E2E7E268DA600023E360237D3B
:10474000002BEBD1DAE7CB6803600023E360237D25
:10475000002BE3D1D2E7022213436383200000F051
:10476000BBFD237D012BD5D0CBE7074807F02EFBFF
:10477000064807F02BFB064807F028FB054807F022
:1047800025FB054807F022FB389B0410549B0410BE
:10479000749B04108C9B0410A89B0410F0B54E462B
:1047A0004546DE465746E0B505000E0087B00028B6
:1047B00067D0037D012B00D1B3E00A2B00D1A1E02B
:1047C000026D9246426A059290228258934602698F
:1047D0009146002B63D1C38A00269846002B67D0F0
:1047E000534A1368834257D1C368136000232C6F68
:1047F00098460026EB60002C5DD1EC6E002C16D0A4
:104800006068276800280CD0FFF714FA2100042004
:10481000FEF76EFF002F0AD03C0060682768002872
:10482000F2D121000420FEF763FF002FF4D16C6F5A
:10483000002C16D06068276800280CD0FFF7FAF922
:1048400021000420FEF754FF002F0AD03C006068CE
:1048500027680028F2D121000420FEF749FF002F2D
:10486000F4D1002E41D12B7D012B5DD029000220F7
:10487000FEF73EFF5B46002B03D00D214846494220
:10488000D84707B0F0BCBB46B246A946A046F0BD2B
:10489000DA68AA4242D01300002BF9D1A6E7C38AF6
:1048A000010024489846FFF715FF0122224B1A7099
:1048B0002C6F002CA1D06068276800280CD0FFF76F
:1048C000B9F921000420FEF713FF002F95D03C001A
:1048D000606827680028F2D121000420FEF708FF55
:1048E000002F00D189E73C00F2E72B8B5146029361
:1048F000434601932B1D009328002B00059A00F0DE
:104900004DFCB0E701000D48FFF7E4FE2B7D012BC5
:104910000AD029000220FEF7EBFEB2E7EA68DA606F
:1049200064E7074807F052FA064807F04FFAC04616
:10493000400A01203C0A0120870A0120500A012078
:10494000C09B0410F4980410F8B5041E32D0002364
:10495000856F6F7B83678433C658002E0CD00100AF
:1049600000232A000069B04700280BD00D301ED06C
:104970000520A5674042F8BD2989FFF7E3FB280021
:10498000FFF758F9BB0610D5238D0C4A934201D08E
:10499000013323858423E558002D06D0002300220F
:1049A00021002069A8470D3001D00020E3E70D2049
:1049B0004042E0E710204042DDE7C046A02D000065
:1049C000F0B54F464646D646C0B5204D204F2B7811
:1049D00001332B701F4B9946012398464B461C68A8
:1049E000002C1BD008262B78A27F9A421BD042466F
:1049F000A377638B1A421ED11E4216D1E3689A46F2
:104A0000A36F002B07D0002320003B70FFF79CFF13
:104A10003B78002BE2D15446002CE4D1E0BCBA46EE
:104A2000B146A846F0BDE468F6E7B34320006383CF
:104A3000FFF7EAFAE2E7022213436383200000F063
:104A40004BFC0322638B93436383D5E7890A0120E0
:104A5000870A01203C0A012010B5FFF7B1FF054A83
:104A600013780133DBB21370DB0700D410BDFFF7FE
:104A7000B5FBFBE7880A012010B5002A12D00029F7
:104A80000AD00B8E002B07D0282B06D9283B1A1CE6
:104A90009BB2834203D890B210BD0020FCE7021CF9
:104AA00090B2F9E7014807F091F9C046F49B041071
:104AB00070B504000D00002802D00368002B00D15F
:104AC00070BD1F4A1068002805D00268934226D0A6
:104AD000C0680028F9D11B4B1868002806D023684D
:104AE00002689A4224D0C0680028F9D1002DE7D08E
:104AF0002B68002BE4D0144B1A68002AE0D02368FE
:104B00001168994205D0D268002AD9D0116899421B
:104B1000F9D12B681360D268002AF0D1D0E7C668BB
:104B20000121FFF73BFE002ED5D030002368CCE7F3
:104B3000C6680121FFF732FE002ED7D03000CEE745
:104B40003C0A0120400A0120480A012070B5446F48
:104B50000600002C18D06068256800280CD0FFF7EC
:104B600069F821000420FEF7C3FD002D0AD02C00B7
:104B7000606825680028F2D121000420FEF7B8FD06
:104B8000002DF4D10023736770BDC046F0B54F46C9
:104B90004646D646C0B5994608AB80460E009246BA
:104BA0001F7800285FD000295AD00425BB000420BC
:104BB0001D40FEF77FFD041E4ED000238772036068
:104BC00046603389AAB2AB4250D39B1A03811421A9
:104BD0003000FFF705F8061E34D163685F6843466E
:104BE000E760D88AFEF78EF843463870000A78707E
:104BF000188BE768FEF786F8B870000AF870484628
:104C0000E768FEF783F8030A7B71030CBB71E36866
:104C100038719846A023DB019C465346000EF8717C
:104C2000A80260441843FEF76DF843461873000A63
:104C30005873E3689E74DE742000E0BCBA46B14647
:104C4000A846F0BD8C220B4920008B5A002401336A
:104C50008B52FFF731FDEFE73000FEF7EBFFEBE79C
:104C6000054807F0B3F8054807F0B0F8044807F026
:104C7000ADF8C046A45F0020549C0410349C04107E
:104C8000789C0410F0B54746CE4680B505000C0070
:104C900090461E0085B000294DD0002838D0007AFB
:104CA00000282BD1180003F03DF8071E2AD06368B6
:104CB000062199462000434622890096FEF7F0FA25
:104CC0004B461874000A5874EB7AAD7A78211B4869
:104CD000425A013242520622009501924146320068
:104CE0002000029703F05CF805002000FEF7A2FF09
:104CF000280005B0C0BCB946B046F0BDFEF726FEA0
:104D0000071ED4D104252000FEF794FF6D42EFE783
:104D1000180003F007F8071EF4D0434606212000D0
:104D2000228900966568FEF7BBFA2874000A687449
:104D3000FF230025CAE7024807F048F8A45F0020D7
:104D4000909C0410F8B54E464546DE465746E0B501
:104D50000500160000284ED0A022436A1431984660
:104D6000C38A89B29A46038B92009946438D2220CA
:104D70009B46FEF759FE071E36D04389132B3DD9BB
:104D800044685046FDF7BEFF2070000A6070484638
:104D9000FDF7B8FF330AA0702671000A6371330C67
:104DA000360EE070A3714046E671FDF7AFFF030ACF
:104DB00020726372030C000EA372E0721148FDF7BB
:104DC000A1FF2073000A60735846FDF79BFF002384
:104DD0006A6AA0739446000AE07323746374A37430
:104DE000E3746B8D6344EB623800F0BCBB46B246A3
:104DF000A946A046F8BD044806F0E8FF034806F0BF
:104E0000E5FFC04610500000BC9C0410E49C041058
:104E1000F0B54546DE4657464E46E0B50C00050067
:104E200083B0002800D1C3E0C66E002E00D1BCE0E4
:104E3000002900D1BFE033899A468B4200D8A8E010
:104E4000438E8B4200D2B9E0B37AA02299009946F2
:104E500004230B409B4653461F1B5B46BFB2F91809
:104E6000362089B29200FEF7DFFD804600281ED072
:104E7000736832891B8941689B1AE3183A0070688D
:104E80009BB25944FEF7BCFFB84218D084224D496A
:104E900040468B5A01338B52FEF7CCFE0120404234
:104EA00003B0F0BCBB46B246A946A046F0BD842282
:104EB0000120444940428B5A01338B52F0E7F3689A
:104EC000587B1A7B00021043FDF71CFF08230200E9
:104ED0001A409346C7B218425DD13F2001220740D5
:104EE00001233B4201D093469F43F1684B790879F7
:104EF0008A791B020343C87912041343000618433E
:104F0000FDF704FF4A4641462318009228005A46FE
:104F1000FFF73CFE80460028C9D07068FEF796FE79
:104F2000662399464A46EB5A1B1AAB525346E41A7B
:104F30007368A4B219891800611889B2FEF70CFED3
:104F40003189F368641834811C7B5B7BB8B21B0227
:104F50001C43FDF7D7FE2043F26883B21B0A10738F
:104F600053737068FEF772FE4B46EB5AC0184B46FF
:104F7000E85243465868FEF769FE4B46EB5A3268E2
:104F8000C0184B46E85243461A6033601B68002B3A
:104F900007D0002084E73720082309229B460740DA
:104FA0009EE768220020AB527AE70120404277E773
:104FB000054806F00BFF054806F008FF044806F018
:104FC00005FFC046A45F0020149D0410389D041006
:104FD0005C9D041070B5040082B0002800D17CE014
:104FE000C36E002B0CD01D001B68002BFBD1EB689F
:104FF000587B1A7B00021043FDF784FE430741D023
:10500000A022002136209200FEF70EFD011E58D08E
:105010000023012200932000E36DFFF7B7FD002875
:1050200044D0C3689B075ED10389002B58D1E36E3F
:10503000002B25D01A001B68002BFBD110606823C1
:105040000022E2522022E36D40680133E365638B66
:1050500013436383FEF7FAFD6623E25A801880B299
:10506000E052002802D1002002B070BD236F002062
:10507000002BF9D1E36E002BF6D11C4806F0A6FEFA
:10508000E066DCE7EB6801201E7B5B7B1B021E43B6
:10509000FDF738FE3043EA6883B21B0A107353737E
:1050A0002022638B002013436383DDE78022638B20
:1050B0000F491343842263838B5A013801338B5287
:1050C000D2E78022638B0120134384220849638343
:1050D0008B5A404201338B52C6E7064806F076FEF3
:1050E000054806F073FE054806F070FECC9D0410DE
:1050F000A45F00206C9D0410A09D0410889D0410E6
:10510000F0B5C646050000B5002841D0026F002A60
:1051100039D01400636826689B7B002E07D0012BD2
:1051200031D13400636826689B7B002EF7D1012BB8
:1051300029D1EB6EE16823608023EA666A8B1B014C
:1051400013432E676B834A7908798B7912020243E5
:10515000C8791B041A4300061043FDF7D7FD2389C5
:1051600007009846E3684744587B1A7B00021043C7
:10517000FDF7C8FD032303405A1E9341DB190020AD
:10518000EB646E6301E00620404280BCB846F0BD8F
:10519000014806F01BFEC046F49D0410F0B55746CA
:1051A000DE464E464546E0B583B01F000CAB904648
:1051B00004CB01901B8808009B460EAB1B889146D0
:1051C0009A46002F4BD0002A4CD0FDF79FFDA0221D
:1051D0000500142122209200FEF726FC061E37D07F
:1051E0004389132B41D944685846FDF78BFD207045
:1051F000000A60705046FDF785FD2B0AA0702571EE
:10520000000A63712B0C2D0EE070A3714046E5710E
:10521000FDF77CFD030A20726372030C000EA3727B
:10522000E0721348FDF76EFD2073000A60731148A9
:10523000FDF768FD0023A073000AE0732374637414
:10524000A374E3743A004B4631000198FFF71AFD4E
:1052500003B0F0BCBB46B246A946A046F0BD064826
:1052600006F0B4FD054806F0B1FD054806F0AEFDB8
:10527000145000002DA00000189E0410349E04104D
:10528000E49C041010B5041E20D0006DFDF73EFD17
:10529000002102002000FFF755FD011E0FD0231D45
:1052A00022002000FFF7EEFC638B002803D10322CD
:1052B0009343638310BD032213436383FAE70322FE
:1052C0000220638B404213436383F3E7014806F0F7
:1052D0007DFDC046509E0410F0B5DE4657464E4652
:1052E0004546E0B5040087B0002800D11CE2037DEC
:1052F000012B00D115E2CB4B1B68834200D1F2E1B8
:10530000C56E002D34D04823C65A1833C75A031D22
:10531000007A9946002800D0E7E1180002F002FD6B
:1053200082465346002B00D1F2E12368002B02D1C4
:1053300053465B682360331CBE4200D93B1CE968BE
:105340009FB24B7908798A791B020343C87912040A
:10535000134300061843FDF7D9FC2B89626C9B1A96
:105360001B18BB4213D96023E35ABB4200D12CE186
:10537000628B930700D524E1802300209A43628347
:1053800007B0F0BCBB46B246A946A046F0BDA1237B
:105390000022E254236F002B00D126E11A001B6883
:1053A000002BFBD190464346B8461F00C8E0EE688C
:1053B0006B689B7B9B46012B5FD1606AFDF7A6FC67
:1053C000030A30727372030C000EB372F072608DB8
:1053D000EE68FDF797FC626AB07394465A46000A7D
:1053E000F073638DEE686344E362AB7A1A4200D0D7
:1053F0001EE114239B46B3443022A35E002B01DA46
:1054000000232386636B002B00D1F8E068684368B3
:105410004660F21A438992B29B1A438103899A1A11
:10542000002392B2028133747374A97A0433890021
:105430000B401433F3189B4500D06FE14B46062117
:1054400000932300FDF72CFF78223074764B000A7E
:1054500070749B5A744901338B525246E37A6868E0
:10546000029206220192A27A210000924A4602F09C
:1054700097FC002800D046E1EE682B68E366237DA8
:10548000022B03D00322638B9343638373793079B8
:10549000B2791B020343F079120413430006184348
:1054A000FDF734FC2B8906009B46EB685E44587B75
:1054B0001A7B00021043FDF725FC03231840431E0E
:1054C0009841236D80191B1A00D52065EB682E8941
:1054D000587B1A7B00021043FDF714FC03230340A2
:1054E0005A1E93419B19002B00D181E000232B60B1
:1054F000236F002B00D17FE0E9684B7908798A7926
:105500001B020343C8791204134300061843FDF736
:10551000FDFBF96806004B7908798A791B02034381
:10552000C8791204134300061843FDF7EFFB361A3F
:1055300000D5A4E03D602F00E56E002D00D1DCE039
:10554000E9684B7908798A791B020343C879120408
:10555000134300061843FDF7D9FB636CC01A2B896F
:10556000C018404500D9CAE0EB68587B1A7B00029E
:105570001043FDF7C7FB430700D5CCE0236F002B9A
:105580000AD04421638B1A00194205D1E16E00292B
:1055900062D0086800285BD0237D022B00D106E78B
:1055A000EB6810201A7B5B7B1B0213439B46FDF7C5
:1055B000A9FB5B461843EE6883B21B0A3073737312
:1055C000F6E62000FFF75EFEDAE6236F002B00D040
:1055D000CEE6A133E35C002B00D0C9E68021A022F7
:1055E0004900A1520232A354C2E600239846DAE6EB
:1055F0002800FFF761F89FE72F0025679CE70B4B1A
:105600001B680593636373793079B2791B02034396
:10561000F0791204134300061843FDF777FBEE6898
:10562000A063F3E6440A0120A45F00204C0A012095
:105630004A4651463E48FFF71FFA81239B04184310
:10564000FDF764FB18239B467061B344EE68D3E614
:105650000E89608E86429FD26420205A00289BD0FB
:105660006620205A1F2897D8A020184294D10029DC
:1056700000D081E668220021A1521A007CE6702346
:105680009B46236FA344002B29D022005C469346FF
:1056900003E024682368002B2BD0D9684B79087964
:1056A0008A791B020343C879120413430006184386
:1056B000FDF72CFBE96806004B7908798A791B0213
:1056C0000343C8791204134300061843FDF71EFB79
:1056D000361ADED45B46A3461C005B461B682B6073
:1056E0005B461D6028E700204AE6FEF72FF9824658
:1056F00017E65A46A3461400F1E7638BBAE7638BBB
:10570000E16E1A00B3E78022638B1343638337E6AD
:105710000420404234E6074806F058FB064806F0ED
:1057200055FB064806F052FB054806F04FFBC04605
:10573000B4050000B09E0410C89E0410889E04109A
:10574000709E041010B5002808D04222835CFF2B05
:1057500001D001338354FFF7BFFD10BD014806F0AF
:1057600035FBC046DC9E0410F8B54546DE4657467C
:105770004E46E0B5051E5AD0036D581EFDF7C6FA19
:10578000A0226B6A06009946EB8A14219B462B8B5C
:1057900022209A466B8D92009846FEF745F9071E27
:1057A00042D04389132B45D944685846FDF7AAFADD
:1057B0002070000A60705046FDF7A4FA330AA0700A
:1057C0002671000A6371330C360EE070A3714846EF
:1057D000E671FDF79BFA030A20726372030C000E58
:1057E000A372E0721548FDF78DFA2073000A60730A
:1057F0004046FDF787FA00236A6AA0739446000AC0
:10580000E07323746374A374E3746B8D2A006344A0
:10581000EB62390028002B1DFFF734FAF0BCBB46C1
:10582000B246A946A046F8BD01204042F6E704482A
:1058300006F0CCFA034806F0C9FAC0461050000042
:10584000009F0410E49C0410F0B5C646040000B5A7
:10585000002800D175E0C56E002D00D16FE0A222B6
:10586000835CFF2B01D001338354EB68587B1A7B98
:1058700000021043FDF746FAC30740D52B89002BE1
:105880003DD1E8684379027981791B021343C279DB
:1058900009040B431206002120001A43FFF752FAB5
:1058A000071E49D07B68112098461E7B5B7B1B023C
:1058B0003343254E1E40FDF725FA434636B23043AA
:1058C00082B2120A18735A73E9684B7908798A7997
:1058D0001B020343C8791204134300061843FDF763
:1058E00015FA236D01301B1A00D5206522003900FE
:1058F0002000231DFFF7C6F980BCB846F0BDE8685C
:105900004379027981791B021343C27909040B435D
:105910001206012120001A43FFF714FA071E0BD0CC
:105920006B682A891B8979689B1A686801229BB277
:105930001431FEF765FAC7E701204042DCE700209A
:10594000DAE7024806F042FAFFC0FFFF1C9F04108E
:1059500070B5040006200E001500FDF7ABFE002810
:1059600013D000230A4903600B688660C560446059
:10597000002B04D107E019001B68002B02D05A68E5
:10598000A21AF8D50360086070BD024806F01EFA3E
:105990002CF90020409F041010B54368040098477C
:1059A000FAF7FCFE03000849226808681018C11ABB
:1059B00005D5D01805492200FFF7CAFF10BD220007
:1059C0000249FFF7C5FFF9E7984C002099590010EC
:1059D000F8B580231D4EDB054746CE4699461C4B45
:1059E0003500984680B51B4F083530362C684C453D
:1059F00026D2FAF7D3FE24180620FDF75BFE002816
:105A000021D000230360434683603B68C560446047
:105A1000002B03D05A68A21A0BD5036038600835F2
:105A2000AE42E3D1C0BCB946B046F8BD5A68A21A2E
:105A300003D419001B68002BF8D103600860EEE75F
:105A4000054806F0C3F9054806F0C0F9B89F0410F0
:105A5000995900102CF90020809F0410409F0410D9
:105A6000F8B5CE46474680B5FAF798FE134E0500C6
:105A7000134C144F12E02168002917D04B68EA1A22
:105A800014D40A68062022608A683B609046CA687F
:105A90009146FDF72DFE4346002B0BD13378002BAA
:105AA000E9D0FDF7A7FF21680029E7D1C0BCB946BE
:105AB000B046F8BD4846C047F0E7C046850A012019
:105AC0002CF90020984C002010B5084C2368002BBE
:105AD00008D0FAF763FE23685B68181AC30F013B0E
